S01800004368616E67696E675265736973746F722E7372656392
S113000045C0000060C000005EC000005CC000008D
S11300105AC0000058C0000056C0000054C0000080
S113002052C0000050C000004EC000004CC0000090
S11300304AC0000048C0000046C0000044C00000A0
S113004042C0000040C000003EC000003CC00000B0
S11300503AC0000038C0000036C0000034C00000C0
S113006032C0000030C000002EC000002CC00000D0
S11300702AC0000028C0000026C0000024C00000E0
S113008022C0000020C000001EC0000011241FBEBA
S1130090CFEFD0E1DEBFCDBF11E0A0E0B1E0E4EEF0
S11300A0F2E000E00BBF02C007900D92A031B1074F
S11300B0D9F721E0A0E1B1E001C01D92A531B2075A
S11300C0E1F71BD00DC19CCF97B1906497B996B15D
S11300D0976096B996B1906896B996B1906296B9C0
S11300E097B1907E892B87B986B1806486B90895CB
S11300F0349BFECF84B195B1089580E0E5DFF8DF4D
S1130100BC01990F880B990B3BD02FEF83ED90E343
S1130110215080409040E1F700C00000F0CF25B3AB
S11301202F6025BB25B343E050E0481B590B81E009
S113013090E002C0880F991F4A95E2F780958223C8
S113014085BB62BB8FE39FE10197F1F700C000001C
S113015008950F931F93CF93DF938C01C0E0D0E0F9
S113016007C0F801EC0FFD1F6081CE01D8DF219696
S1130170C430D105B4F3DF91CF911F910F9108954D
S11301804F925F926F927F928F929F92AF92BF92A3
S1130190CF92DF92EF92FF92CF93DF9300D000D003
S11301A0CDB7DEB76B017C010F2EFAE08F2E912CB8
S11301B0A12CB12CF02DA501940170D069837A8310
S11301C08B839C83CA01B901A501940167D02B01DB
S11301D03C01C701B60124E630E040E050E05ED0C7
S11301E0CA01B901A501940159D04B015C01C701B1
S11301F0B60128EE33E040E050E050D0E981FA81C6
S1130200E050FF4F8081E0E1F1E08083D201A05013
S1130210BF4F8C918183D401A050BF4F8C918058E3
S11302208283D901A050BF4F8C9183838AE0C81682
S1130230D104E104F10428F41382118280E882835A
S113024015C084E6C816D104E104F10430F4E0E1F9
S1130250F1E080E88283138209C088EEC81683E047
S1130260D806E104F10410F41092130180E191E046
S113027070DF80E191E00F900F900F900F90DF916D
S1130280CF91FF90EF90DF90CF90BF90AF909F9071
S11302908F907F906F905F904F900895A1E21A2EF7
S11302A0AA1BBB1BFD010DC0AA1FBB1FEE1FFF1F16
S11302B0A217B307E407F50720F0A21BB30BE40B66
S11302C0F50B661F771F881F991F1A9469F76095AD
S11302D07095809590959B01AC01BD01CF01089567
S10702E0F894FFCFBC
S11302E43F065B4F666D7D277F67777C585E797127
S9030000FC
