S01400007465737430342D74696D65722E737265639E
S113000045C0000060C000005EC000005CC000008D
S11300105AC0000052C300007AC300008FC300001E
S113002052C0000050C000004EC000004CC0000090
S11300304AC0000048C00000C2C3000044C0000021
S113004042C0000040C000003EC000003CC00000B0
S11300503AC0000038C0000036C0000034C00000C0
S113006032C0000030C000002EC000002CC00000D0
S11300702AC0000028C0000026C0000024C00000E0
S113008022C0000020C000001EC0000011241FBEBA
S1130090CFEFD0E1DEBFCDBF11E0A0E0B1E0E0E9F9
S11300A0FAE000E00BBF02C007900D92AC32B1073A
S11300B0D9F721E0ACE2B1E001C01D92A934B20746
S11300C0E1F733D0E3C49CCFCF93DF93C0E0D0E01B
S11300D00AC084E091E0FED38FE99FE00197F1F735
S11300E000C000002196C233D1059CF38FE39CE944
S11300F00197F1F700C00000C0E0D0E00AC080E042
S113010091E0E8D38FE99FE00197F1F700C0000088
S11301102196C233D1059CF38FE39CE90197F1F753
S113012000C00000DF91CF91089565E370E082E3A1
S113013090E0A1D380E789BF8AE28ABF8FEF81BBB9
S11301408FE084BB12B88AB380688ABB87B78460A7
S113015087BF8EB584608EBD8FB780688FBF78945B
S113016080912E0190912F01009721F0019709F4BD
S113017095C1F6CF80914001909141018130910564
S113018009F465C01CF4892B49F0EACF823091054B
S113019009F4BFC0039709F41FC1E2CF10923D01D7
S11301A010923C0110923B0110923A01109203010B
S11301B0C0913C01D0913D0180913A0190913B0165
S11301C0C81BD90B80913C0190913D01892B39F4D6
S11301D0C85FDE4F88818093070176DFE9CFCA309C
S11301E0D10514F0C9E0D0E01C161D0614F0C0E0DF
S11301F0D0E0FE01E85FFE4F80818093070164DF59
S11302008091380190913901019791F6FE01E85FE0
S1130210FE4F8081809307018FE39CE90197F1F7FA
S113022000C000009FEF21EE84E091502040804008
S1130230E1F700C00000109239011092380181E00A
S113024090E090934101809340017E0189CF109208
S11302503D0110923C0110923B0110923A01E0E002
S1130260F1E080E88283C85FDE4F88818383C09198
S11302703C01D0913D0180913A0190913B01C81B12
S1130280D90B80913C0190913D01892B41F4C85FC9
S1130290DE4F888180588093060116DFE8CFCA308C
S11302A0D10514F0C9E0D0E01C161D0614F0C0E01E
S11302B0D0E0FE01E85FFE4F808180588093060104
S11302C003DF8091380190913901019781F6FE0195
S11302D0E85FFE4F80818058809306018FE39CE99C
S11302E00197F1F700C000009FEF21EE84E09150E8
S11302F020408040E1F700C00000109239011092C4
S1130300380182E090E090934101809340016E01B6
S113031027CF1092390110923801C85FDE4F8881CF
S1130320E0E0F1E080588283118210923D01109246
S11303303C0110923B0110923A01C0913C01D091D2
S11303403D0180913A0190913B01C81BD90B8091EA
S11303503C0190913D01892B39F4C85FDE4F8881BF
S113036080930501B1DEE9CFC630D10514F0C5E0B4
S1130370D0E01C161D0614F0C0E0D0E0FE01E85FDA
S1130380FE4F8081809305019FDE8091380190911A
S11303903901019791F6FE01E85FFE4F8081809359
S11303A005018FE39CE90197F1F700C000009FEF7E
S11303B021EE84E0915020408040E1F700C000002D
S11303C0109239011092380183E090E0909341013A
S11303D0809340018E01C4CEE0E0F1E010821092DF
S11303E0390110923801C85FDE4F888181831092F1
S11303F03D0110923C0110923B0110923A01C091D0
S11304003C01D0913D0180913A0190913B01C81B80
S1130410D90B80913C0190913D01892B39F4C85F3F
S1130420DE4F8881809304014FDEE9CFCA30D105C5
S113043014F0C9E0D0E01C161D0614F0C0E0D0E0B2
S1130440FE01E85FFE4F8081809304013DDE8091D0
S1130450380190913901019791F6FE01E85FFE4F52
S11304608081809304018FE39CE90197F1F700C038
S113047000009FEF21EE84E0915020408040E1F79E
S113048000C00000109239011092380181E090E020
S113049090932F0180932E015E0162CE109243014E
S11304A01092420110923F0110923E0110923B01C2
S11304B010923A0188E592E0E89EA001E99E500D71
S11304C0F89E500D11242CE32C9DC0012D9D900D00
S11304D01124480F591F9801220F331F220F331F75
S11304E0220F331FC801880F991F820F931F840F97
S11304F0951F8A0D9B1D90932D0180932C01809153
S1130500420190914301892B21F052C084E091E093
S1130510E1D18091420190914301892BB9F348C004
S1130520409034015090350160903601709037014D
S113053021E0421651046206710440F01092340125
S11305401092350110923601109237014090340117
S1130550509035016090360170903701BC01CD0197
S11305606419750986099709CCD180913A01909153
S11305703B01892BE9F01092430110924201109241
S113058041011092400110923F0110923E011092DD
S11305903D0110923C0110923B0110923A011092DD
S11305A039011092380110922D0110922C0116C0BD
S11305B060912C0170912D01CB01770FAA0BBB0B1D
S11305C040903401509035016090360170903701AD
S11305D084159505A605B70509F0A2CF80912C01D5
S11305E090912D01092E000CAA0BBB0B40913401F4
S11305F05091350160913601709137018417950748
S1130600A607B70709F03FC010923F0110923E01C0
S113061018C08BB380688BBB8FEF99E628E18150BB
S113062090402040E1F700C000008BB38F778BBB74
S11306308FEF99E628E1815090402040E1F700C017
S1130640000080913E0190913F01892B11F310929B
S11306504301109242011092410110924001109204
S11306603F0110923E0110923D0110923C01109204
S11306703B0110923A011092390110923801109204
S11306802D0110922C0180E090E00AC0FC01EC5F87
S1130690FE4F20E42083FC01E050FF4F20830196AD
S11306A0843091059CF380EC8093060180930201D1
S11306B010922F0110922E0153CD1F920F920FB65C
S11306C00F9211248F939F9380913C0190913D014F
S11306D0019690933D0180933C0180914201909159
S11306E0430101969093430180934201809142011A
S11306F090914301029724F0109243011092420119
S11307009F918F910F900FBE0F901F9018951F927D
S11307100F920FB60F9211248F939F9380913A01F9
S113072090913B01019690933B0180933A019F91F4
S11307308F910F900FBE0F901F9018951F920F92DC
S11307400FB60F9211242F933F938F939F93109280
S11307503401109235011092360110923701109233
S113076043011092420121E030E03093390120939B
S1130770380180914001909141010196909341018B
S11307808093400130933F0120933E0180914001CA
S113079090914101049734F081E090E090932F010F
S11307A080932E0110924301109242019F918F91E8
S11307B03F912F910F900FBE0F901F9018951F928D
S11307C00F920FB60F9211242F933F934F935F9381
S11307D08F939F93AF93BF93809130019091310198
S11307E0A0913201B09133010196A11DB11D8093F6
S11307F0300190933101A0933201B09333012091E1
S113080042013091430191E040912E0150912F011A
S11308104130510509F090E081E02130310509F0C3
S113082080E08923D9F08091340190913501A09121
S11308303601B09137010196A11DB11D8093340199
S113084090933501A0933601B09337011092300193
S1130850109231011092320110923301BF91AF9185
S11308609F918F915F914F913F912F910F900FBE68
S11308700F901F90189590931B0180931A01709309
S11308801901609318010895E0911801F09119017C
S113089020812F602083E0911801F091190123E059
S11308A030E0281B390B81E090E002C0880F991FCB
S11308B02A95E2F78095908189238083E0911A013B
S11308C0F0911B0160838FE39FE10197F1F700C072
S11308D0000008950F931F93CF93DF938C01C0E022
S11308E0D0E007C0F801EC0FFD1F6081CE01CCDF22
S11308F02196C430D105B4F3DF91CF911F910F91AC
S113090008954F925F926F927F928F929F92AF92CF
S1130910BF92CF92DF92EF92FF92CF93DF93CDB746
S1130920DEB728970FB6F894DEBF0FBECDBF6B01BC
S11309307C010F2EFAE08F2E912CA12CB12CF02DDE
S1130940A501940181D069837A838B839C830F2EC4
S1130950F6E04F2E512C612C712CF02DCA01B901F7
S1130960A301920171D06D837E838F839887C70121
S1130970B6012CE330E040E050E066D0CA01B90192
S1130980A501940161D04B015C01C701B60128E5C2
S113099032E040E050E058D0CA01B901A30192010D
S11309A053D0E981FA81E45EFE4F2081E4E4F1E072
S11309B02083AD81BE81A45EBE4F2C912183D401DE
S11309C0A45EBE4F2C9120582283DB01A45EBE4F4F
S11309D08C9183838AE0C816D104E104F10428F4DD
S11309E01382118280E8828315C08CE3C816D10477
S11309F0E104F10430F4E4E4F1E080E8828313825A
S1130A0009C088E5C81682E0D806E104F10410F4B0
S1130A101092470184E491E05DDF84E491E028963C
S1130A200FB6F894DEBF0FBECDBFDF91CF91FF901C
S1130A30EF90DF90CF90BF90AF909F908F907F907A
S1130A406F905F904F900895A1E21A2EAA1BBB1BD2
S1130A50FD010DC0AA1FBB1FEE1FFF1FA217B30786
S1130A60E407F50720F0A21BB30BE40BF50B661F9C
S1130A70771F881F991F1A9469F760957095809560
S1130A8090959B01AC01BD01CF010895F894FFCF6F
S1130A904040C0404040C0403F065B4F666D7D27EC
S1130AA07F67777C585E7971350032003F065B4F73
S10F0AB0666D7D277F67777C585E797146
S9030000FC
