S01200007465737430352D4144432E73726563F8
S113000045C0000060C000005EC000005CC000008D
S11300105AC0000058C0000056C0000054C0000080
S113002052C0000050C000004EC000004CC0000090
S11300304AC0000048C0000046C0000044C00000A0
S113004042C0000040C000003EC000003CC00000B0
S11300503AC0000038C0000036C0000034C00000C0
S113006032C0000030C000002EC000002CC00000D0
S11300702AC0000028C0000026C0000024C00000E0
S113008022C0000020C000001EC0000011241FBEBA
S1130090CFEFD0E1DEBFCDBF11E0A0E0B1E0EEE2F2
S11300A0F3E000E00BBF02C007900D92A431B1074A
S11300B0D9F721E0A4E1B1E001C01D92A931B20752
S11300C0E1F716D032C19CCF97B1906497B996B13D
S11300D0976096B996B1906896B996B1906296B9C0
S11300E097B1907E892B87B986B1806486B90895CB
S11300F062E370E085E390E00DD080E090E0E4DF1F
S1130100349BFECF64B175B1072E000C880B990B9C
S113011047D0F6CF909303018093020170930101BD
S1130120609300010895E0910001F09101012081A4
S11301302F602083E0910001F091010123E030E081
S1130140281B390B81E090E002C0880F991F2A9583
S1130150E2F78095908189238083E0910201F091F8
S1130160030160838FE39FE10197F1F700C0000072
S113017008950F931F93CF93DF938C01C0E0D0E0D9
S113018007C0F801EC0FFD1F6081CE01CCDF219682
S1130190C430D105B4F3DF91CF911F910F9108952D
S11301A04F925F926F927F928F929F92AF92BF9283
S11301B0CF92DF92EF92FF92CF93DF93CDB7DEB76A
S11301C028970FB6F894DEBF0FBECDBF6B017C013C
S11301D00F2EFAE08F2E912CA12CB12CF02DA5011D
S11301E0940181D069837A838B839C830F2EF6E0FC
S11301F04F2E512C612C712CF02DCA01B901A30191
S1130200920171D06D837E838F839887C701B60175
S11302102CE330E040E050E066D0CA01B901A5010A
S1130220940161D04B015C01C701B60128E532E0BD
S113023040E050E058D0CA01B901A301920153D063
S1130240E981FA81EC5FFE4F2081E4E1F1E0208353
S1130250AD81BE81AC5FBE4F2C912183D401AC5FD4
S1130260BE4F2C9120582283DB01AC5FBE4F8C9192
S113027083838AE0C816D104E104F10428F41382CC
S1130280118280E8828315C08CE3C816D104E1048E
S1130290F10430F4E4E1F1E080E88283138209C0E0
S11302A088E5C81682E0D806E104F10410F410923F
S11302B0170184E191E05DDF84E191E028960FB6B7
S11302C0F894DEBF0FBECDBFDF91CF91FF90EF90CA
S11302D0DF90CF90BF90AF909F908F907F906F9062
S11302E05F904F900895A1E21A2EAA1BBB1BFD013B
S11302F00DC0AA1FBB1FEE1FFF1FA217B307E40701
S1130300F50720F0A21BB30BE40BF50B661F771F58
S1130310881F991F1A9469F7609570958095909538
S11103209B01AC01BD01CF010895F894FFCFFD
S113032E350032003F065B4F666D7D277F67777C15
S107033E585E797117
S9030000FC
