S01300007465737430332D696E74722E7372656304
S113000045C0000060C000005EC000005CC000008D
S11300105AC0000040C100005FC100007EC1000062
S113002052C0000050C000004EC000004CC0000090
S11300304AC0000048C0000046C0000044C00000A0
S113004042C0000040C000003EC000003CC00000B0
S11300503AC0000038C0000036C0000034C00000C0
S113006032C0000030C000002EC000002CC00000D0
S11300702AC0000028C0000026C0000024C00000E0
S113008022C0000020C000001EC0000011241FBEBA
S1130090CFEFD0E1DEBFCDBF11E0A0E0B1E0E6E7F5
S11300A0F3E000E00BBF02C007900D92A031B1074E
S11300B0D9F721E0A0E1B1E001C01D92A931B20756
S11300C0E1F7C1D056C19CCF25B32F6025BB25B322
S11300D043E050E0481B590B81E090E002C0880FD8
S11300E0991F4A95E2F78095822385BB62BB8FE313
S11300F09FE10197F1F700C0000008950F931F934B
S1130100CF93DF938C01C0E0D0E007C0F801EC0F7F
S1130110FD1F6081CE01D8DF2196C430D105B4F330
S1130120DF91CF911F910F9108954F925F926F923B
S11301307F928F929F92AF92BF92CF92DF92EF9273
S1130140FF92CF93DF9300D000D0CDB7DEB76B0121
S11301507C010F2EFAE08F2E912CA12CB12CF02DC6
S1130160A5019401E4D069837A838B839C83CA01BB
S1130170B901A5019401DBD02B013C01C701B601F3
S113018024E630E040E050E0D2D0CA01B901A50134
S11301909401CDD04B015C01C701B60128EE33E0D8
S11301A040E050E0C4D0E981FA81E050FF4F808103
S11301B0E4E1F1E08083D201A050BF4F8C918183B0
S11301C0D401A050BF4F8C9180588283D901A05094
S11301D0BF4F8C9183838AE0C816D104E104F104F3
S11301E028F41382118280E8828315C084E6C8163D
S11301F0D104E104F10430F4E4E1F1E080E8828325
S1130200138209C088EEC81683E0D806E104F1041D
S113021010F41092170184E191E070DF84E191E021
S11302200F900F900F900F90DF91CF91FF90EF9070
S1130230DF90CF90BF90AF909F908F907F906F9002
S11302405F904F9008958FEF81BB8FE084BB12B80D
S113025080E789BF8AE28ABF8FB780688FBF7894AE
S1130260C0E0D0E08091120190911301009721F039
S1130270019721F4219602C0C0E0D0E0BE010D2E0A
S1130280000C880B990B51DF8FE39FE10197F1F785
S113029000C00000E7CF1F920F920FB60F921124F7
S11302A08F939F93809112019091130101969093E3
S11302B0130180931201809112019091130103970D
S11302C024F010921301109212019F918F910F90BC
S11302D00FBE0F901F9018951F920F920FB60F929A
S11302E011248F939F938091100190911101019695
S11302F0909311018093100180911001909111014C
S1130300039724F010921101109210019F918F9184
S11303100F900FBE0F901F9018951F920F920FB65B
S11303200F9211240F900FBE0F901F901895A1E209
S11303301A2EAA1BBB1BFD010DC0AA1FBB1FEE1F5B
S1130340FF1FA217B307E407F50720F0A21BB30BA6
S1130350E40BF50B661F771F881F991F1A9469F722
S113036060957095809590959B01AC01BD01CF017E
S10903700895F894FFCF8C
S11303763F065B4F666D7D277F67777C585E797194
S9030000FC
