:1000000045C0000060C000005EC000005CC0000091
:100010005AC0000049C100006AC1000089C1000047
:1000200052C0000050C000004EC000004CC0000094
:100030004AC0000048C0000046C0000044C00000A4
:1000400042C0000040C000003EC000003CC00000B4
:100050003AC0000038C0000036C0000034C00000C4
:1000600032C0000030C000002EC000002CC00000D4
:100070002AC0000028C0000026C0000024C00000E4
:1000800022C0000020C000001EC0000011241FBEBE
:10009000CFEFD0E1DEBFCDBF11E0A0E0B1E0ECE8F2
:1000A000F3E000E00BBF02C007900D92A031B10752
:1000B000D9F721E0A0E1B1E001C01D92A931B2075A
:1000C000E1F7C1D061C19CCF25B32F6025BB25B31B
:1000D00043E050E0481B590B81E090E002C0880FDC
:1000E000991F4A95E2F78095822385BB62BB8FE01A
:1000F00097E20197F1F700C0000008950F931F9356
:10010000CF93DF938C01C0E0D0E007C0F801EC0F83
:10011000FD1F6081CE01D8DF2196C430D105B4F334
:10012000DF91CF911F910F9108954F925F926F923F
:100130007F928F929F92AF92BF92CF92DF92EF9277
:10014000FF92CF93DF93CDB7DEB728970FB6F89421
:10015000DEBF0FBECDBF4B015C0124E630E040E0C6
:1001600050E0F0D00F2EFAE0CF2ED12CE12CF12C64
:10017000F02DCA01B901A7019601E4D069837A8301
:100180008B839C83C501B40128EE33E040E050E04E
:10019000D9D0CA01B901A7019601D4D026E030E038
:1001A00040E050E0CFD02B013C01C501B40120E775
:1001B00037E140E050E0C6D0CA01B901A70196017D
:1001C000C1D06D837E838F839887C501B40120E6FB
:1001D0003AEE40E050E0B6D0CA01B901A70196015D
:1001E000B1D0E981FA81E050FF4F2081E4E1F1E0F4
:1001F0002083D201A050BF4F2C912183AD81BE81BD
:10020000A050BF4F2C9120582283DB01A050BF4F3C
:100210008C918383CF0172DF84E191E028960FB641
:10022000F894DEBF0FBECDBFDF91CF91FF90EF906E
:10023000DF90CF90BF90AF909F908F907F906F9006
:100240005F904F9008958AB380688ABB8FEF81BB1F
:100250008FE084BB12B880E789BF8AE28ABF8FB77C
:1002600080688FBF7894C0E0D0E0809110019091B9
:100270001101009721F0019721F4219602C0C0E0FE
:10028000D0E08091120190911301009721F0019725
:1002900021F4219602C0C0E0D0E0BE010D2E000C7A
:1002A000880B990B42DFE1CF1F920F920FB60F928E
:1002B00011248F939F9380911201909113010196C5
:1002C0009093130180931201809112019091130178
:1002D000039734F081E090E0909313018093120132
:1002E0009F918F910F900FBE0F901F9018951F92A6
:1002F0000F920FB60F9211248F939F93809110014C
:1003000090911101019690931101809310018091B9
:10031000100190911101029724F010921101109296
:1003200010019F918F910F900FBE0F901F90189505
:100330001F920F920FB60F9211240F900FBE0F90C5
:100340001F901895A1E21A2EAA1BBB1BFD010DC020
:10035000AA1FBB1FEE1FFF1FA217B307E407F50775
:1003600020F0A21BB30BE40BF50B661F771F881F51
:10037000991F1A9469F760957095809590959B01E7
:0C038000AC01BD01CF010895F894FFCF3F
:10038C003F065B4F666D7D277F67777C585E797182
:00000001FF
