S01300007465737430322D377365672E737265634C
S113000045C0000060C000005EC000005CC000008D
S11300105AC0000058C0000056C0000054C0000080
S113002052C0000050C000004EC000004CC0000090
S11300304AC0000048C0000046C0000044C00000A0
S113004042C0000040C000003EC000003CC00000B0
S11300503AC0000038C0000036C0000034C00000C0
S113006032C0000030C000002EC000002CC00000D0
S11300702AC0000028C0000026C0000024C00000E0
S113008022C0000020C000001EC0000011241FBEBA
S1130090CFEFD0E1DEBFCDBF11E0A0E0B1E0E8EBEF
S11300A0F3E000E00BBF02C007900D92A231B1074C
S11300B0D9F721E0A2E1B1E001C01D92A731B20756
S11300C0E1F7D5D077C19CCF25B32F6025BB45B3CD
S11300D0019721E030E0F90102C0EE0FFF1F8A957D
S11300E0E2F7CF018095842385BBFB01E050FF4FED
S11300F0808182BB089525B32F6025BB25B343E0DF
S113010050E0481B590B81E090E002C0880F991F12
S11301104A95E2F78095822385BB62BB8FE39FE11A
S11301200197F1F700C0000008950F931F93CF9338
S1130130DF938C01C0E0D0E007C0F801EC0FFD1F95
S11301406081CE01D8DF2196C430D105B4F3DF91AC
S1130150CF911F910F9108954F925F926F927F926A
S11301608F929F92AF92BF92CF92DF92EF92FF92C3
S1130170CF93DF9300D000D0CDB7DEB76B017C0105
S11301800F2EFAE08F2E912CA12CB12CF02DA5016D
S11301909401EED069837A838B839C83CA01B9016D
S11301A0A5019401E5D02B013C01C701B60124E669
S11301B030E040E050E0DCD0CA01B901A50194016F
S11301C0D7D04B015C01C701B60128EE33E040E013
S11301D050E0CED0E981FA81EF5FFE4F8081E2E109
S11301E0F1E08083D201AF5FBE4F8C918183D40153
S11301F0AF5FBE4F8C9180588283D901AF5FBE4FF1
S11302008C9183838AE0C816D104E104F10428F4B4
S11302101382118280E8828315C084E6C816D10453
S1130220E104F10430F4E2E1F1E080E88283138236
S113023009C088EEC81683E0D806E104F10410F47E
S11302401092150182E191E00F900F900F900F90A2
S1130250DF91CF91FF90EF90DF90CF90BF90AF9060
S11302609F908F907F906F905F904F9008958FEF45
S113027081BB8FE084BB87B38E7F87BBC0E0D0E0B7
S1130280C12CD12C760102C0C1E0D0E0C130D1052F
S1130290A9F1C230D10509F44AC02097B9F760E04A
S11302A070E081E090E010DF8FE39FE10197F1F7C8
S11302B000C0000060E070E082E090E005DF8FE3C2
S11302C09FE10197F1F700C0000060E070E083E077
S11302D090E0FADE8FE39FE10197F1F700C00000A0
S11302E060E070E084E090E0EFDE8FE39FE101974F
S11302F0F1F700C00000B09BC7CFC8CF60E070E04A
S1130300CB016B017C012FEFC21AD20AE20AF20A76
S113031023DF0BDF8FE39FE10197F1F700C00000BB
S1130320C701B601B09BB2CFC2E0D0E0EACF9FEFE5
S113033021EE84E0915020408040E1F700C00000AD
S1130340C701B60109DFF1DE8FE39FE10197F1F701
S113035000C00000B099F4CF9FEF25EA8EE09150E1
S113036020408040E1F700C00000C0E0D0E08ECF24
S1130370A1E21A2EAA1BBB1BFD010DC0AA1FBB1FA5
S1130380EE1FFF1FA217B307E407F50720F0A21B17
S1130390B30BE40BF50B661F771F881F991F1A9484
S11303A069F760957095809590959B01AC01BD01AE
S10B03B0CF010895F894FFCF7A
S11303B8403F065B4F666D7D277F67777C585E7983
S10503C87100BE
S9030000FC
